:20000000003C0220A170010039FB021039FB021039FB021039FB021039FB021039FB0210CC
:1C00200039FB021039FB021039FB021039FB021039FB021039FB021011FB021002
:20003C002DE9F04FC64C002020600220ADF1340DA0604FF0FF3060600020E06010201CF0D2
:20005C0053FD206150B1002104F1140701600E4647602369866004F15005DD6093A0606138
:20007C000827E7614FF0FF36A661402024621CF03BFDB44A04F1140507460020676227B12E
:20009C00C10000237B5079184A60401C0828F6DB89A020650327A76566651820E4651CF0C1
:2000BC0023FD206658B188A10160A74988A2416007468260F96017B187A038617961002026
:2000DC00A06201272763E662082065631CF00CFDA06320B10021016004F13C07476080A0AE
:2000FC00E0630627676404F1280526643020A5641CF0FAFC0746E764C8B17FA10160934934
:20011C0041607FA28260002FF96010D07EA0386180A2796107F118063260F96107D07FA00C
:20013C00386283A2796207F128063260F9621DF0E7F917F07FFC071C00F02A861BF0E6FCD7
:20015C0083498446002031F80C6F002E40F01C864FF6F879A1F800904F60E54D687000226F
:20017C008A607868E86060461BF0B3FE2846DFF8ECB10078002800F0ED81284640301CF025
:20019C00B7FA29460861734F73492E4641F28832002306F14C00009717F03AFED24DD34964
:2001BC000022152305F12A00009010200AF072F9E1491020002202230AF06CF94FF4806061
:2001DC0001212A4606F0EAFC40F2024001216A1C06F0E4FC40F203400121AA1C06F0DEFC76
:2001FC0040F206400121EA1C06F0D8FC2A1D40F21140012106F0D2FC6A1D40F21B40012193
:20021C0006F0CCFCAA1D40F20D40012106F0C6FCEA1D40F21240012106F0C0FC05F1080285
:20023C0040F20C40012106F0B9FC05F109024FF48360012106F0B2FC05F10A0240F20740EF
:20025C00012106F0ABFC05F10B0240F21440012106F0A4FC05F10C0240F21640012106F0DE
:20027C009DFC05F10D0240F21540012106F096FCB249102001220AF00DF9B14910204FF0DC
:20029C00FF320AF007F9AF4FAF4E10201323AF4A0090394601960AF0FDF820201CF024FCBC
:2002BC00AB4E0146B160002968D059E0576F726B207769746800C046536574204175746FCD
:2002DC00436F6E6E6563740044697361626C650047726F757020410047726F7570204200A7
:2002FC0053657420436F6E6E2050485920507265666572656E63650031204D62707300C035
:20031C0032204D62707300C03120262032204D62707300C0436F64656400C0463120262066
:20033C0032204D6270732C202620436F646564004175746F20504859206368616E6765001C
:20035C0048610020FD7C010019A0000039DA0000844000203F4A0020D59D01002D6D0210C6
:20037C0009F1070019F070FAD249102006F1140200901123019139460AF08CF804200127F6
:20039C008DF81A004FF002088DF817704FF0030A8DF81880CF498DF819A00DF10E0300205F
:2003BC000A6809791A600DF117021971394615F063F906AA3846014615F05EF90DF1190248
:2003DC004046394615F058F90DF11A025046394615F052F9042005210DF10E0215F04CF985
:2003FC004348CB49024614303832706010200AF051F83F48417850201AF00EF9C5490246F2
:20041C0010200AF047F83A48417850201AF004F90246594610200AF03DF8BF491020FB220A
:20043C0040F648030AF036F8BC491020CDA20AF031F8BB4E06F1180006F10C0111F0F2F928
:20045C00B849B0601CF0F4F9B74FB0684FF4E0213A46521C19F0C0F9B0684FF4E0213A4688
:20047C0019F0BAF9CB4FB0684FF0C0513A46521C19F0B2F9B0684FF0C0513A4619F0ACF9EA
:20049C004FF0000A06F12400C822C349CDF800A0534617F0BDFCC148706009F1050015F04B
:2004BC00B5F81348417850201AF0B6F810350346BB49CDF800A004221020019509F0EAFF72
:2004DC000B480B4DC022514600F5CE7005F5CE750990284613F043FF082709F107007F1E53
:2004FC0025F8180BFBD105E0D8400020215F0100B83600209CA0206051464FF0FF322046FF
:20051C001AF0D6FBA74908688B4660B1A76857B1A54907270861A54E0F702046CE6019F0F7
:20053C001FFADBF800001C21524694A31AF016FACDF828804CE0C0463D880100B9AE0100C0
:20055C00A1900100E5A6010014130200B8390020583C0020CD490227CD48CE4C4F70002680
:20057C008861CD4D0A97CD4A66603346A5605178E360502021701AF04FF8024659461020EB
:20059C0009F088FF217850201AF046F8C6490246102009F07FFF217850201AF03DF8C3491C
:2005BC000246102009F076FFBC48417850201AF033F8BF490246102009F06CFFBD491020BD
:2005DC0009F068FFB548DFF8DCB100F5CE700990DFF8D481B148C06800214FF040424FF004
:2005FC00FF331CF089FF5FEA000AF3D0002002900DF1160102AA03A819F0C8FC002840F0C0
:20061C002182BDF80C00102840F01882A3489DF816104078884240F01182029B18884FF6EB
:20063C00FF71814200F00A821D46287891381FD01F3803D0203800F07E817FE12979DBF8EE
:20065C00000098F800207E2904D07F290AD11989C2A301E0297AC5A30091521CD1B2002239
:20067C001AF07CF9297905F108001CF041FF65E168780E385AD0401E2ED0401E00F05681DC
:20069C002E3840F05B81A8780C2840F05781EF78DBF8000098F800109FB9EA79012A0BD0D5
:2006BC00022A08BFB5A208D0032A0CBFB4A2B6A203E0C04620130200B9A20092891CB9A34A
:2006DC0001E0491CBCA3C9B200221AF047F90C2019E0C046E2130200A88842F232018142F6
:2006FC0040F02C81AA78DBF8000098F800101A2A1ABF0092B5A3BDA3491C0022C9B21AF0F9
:20071C002DF942F23200294613F060F816E1C046FDAF0100D96C02100D520210397F01102C
:20073C0050440020FD9501000E000580A968AF88087841F20542BF1A3AD0A7F62B47002F60
:20075C0040F0FC80002840F0F980C87800900879019098F80010DBF80000CEA3C91D0890BC
:20077C00DEE0C04600C046C053696D706C65205065726970686572616C00C0463D3D3D3D43
:20079C003D3D3D3D3D3D3D3D3D3D3D3D3D3D3D3D00C046C00E00001085C001009FB20100F1
:2007BC00ADC100001C4800203048002065F20000A968491C91F90290002840F0BF804A7851
:2007DC00087800EB02201BF03FF90B9098F800C0DBF800000B990890082980F29E80B9F1C8
:2007FC007F0F00F08A80099C0A46C900204601EB02116418627C0746531C63748A18D219B8
:20081C0082F80C90627C052640180C30002137463B4692FBF3F37343D21A627410F9012BCA
:20083C007F1E0A4411B2F9D1324691FBF2F148B2A074E77C002F60D110F11F0F4FF00007F7
:20085C0004DD267D022E18BF002E35D194F9121011F11E0F07DA11F1290F04DD267D012E11
:20087C0018BF002E1CD111F1330F04DD11F1280F43DA277D2FB911F1320F3EDA04220227B9
:20089C001BE004220127062618E0C0465C420020FD030100C44800208D3B0100B836002007
:2008BC00012632460AE0C046F16C0210C9C70100D5C70100A95E021002220226637D9E42CB
:2008DC0002D1A17D022901DB9E4216D0208811463B4618F003FD0120E074607D86421CBFC1
:2008FC000020A0751FB1012F14BF0A9E06266675DBF80000089098F800C00B99099F0A46CE
:20091C00CDF80090C90001EB0211C91991F91210BEA301910CF1050102E00CF10101C3A3D3
:20093C000898C9B200221AF019F807E00820002109F0ECF802E0184601F02EFF287801280F
:20095C007CD168680778BF1E68D0BF1E18BF00216BD181786868C91C67E0C0464D545520A8
:20097C0053697A653A20256400C046C046432056696F6C617465643A20256400324D00C014
:20099C00434F44454400C046556E6578706563746564205048592056616C756500C046C0CD
:2009BC00314D00C0504859205570646174656420746F20257300C046504859204368616EB9
:2009DC006765206661696C75726500C0504859205570646174652053746174757320457674
:2009FC00656E743A203078257800C046504859204368616E6765206661696C7572652C2044
:200A1C007065657220646F6573206E6F7420737570706F7274207468697300C068680279B2
:200A3C00C17801EB0221491D89B213F0A1F868680178891E012901D816F022FD029808B1AA
:200A5C001CF009F85FEADA70FFF4C4ADB94800691CF04AFD00287FF4BDADB64800691BF042
:200A7C0096F8041CF2D0DBF8000098F80010227881460D46521E092A00F27581DFE812F06F
:200A9C004F01FF00B40093008200730071016B015A001400525850683A2025642C20545826
:200ABC0050683A20256400C065682F88491C0022B1A3C9B2009719F051FF9E48C2784FF690
:200ADC000476AD1CBF1B1DD0FF1E0AD07F1E40F04A81AC49102009F0DDFC9648A949007921
:200AFC0026E00020B04900900346102009F0D2FC0020904F0090AC493A791020002309F068
:200B1C00C9FC30E195F9000098F80030DBF8005006461AF091F85B1CD9B200960022A4A392
:200B3C000190284619F01AFF30461AF085F89D49064610E06068468830461AF085FF08288F
:200B5C000EDA099FC10001EB0011C919C87D012840F0098192493246102009F09BFC02E12B
:200B7C006D1C32A3F1E002200DF11B0117F00EFD002840F0F880032001210DF11B0214F0A8
:200B9C007BFDF0E06668777A47B18848ED1C002292A30090E9B2484619F0E0FE834800900F
:200BBC007E49F288A9E7616808790978D1B1491E11D0491E09D0491E40F0D58010B98BA390
:200BDC00ED1CC2E000908EA3FAE7002808BF92A3F6D096A304E0002808BF9AA3F0D09DA379
:200BFC00ED1CB1E0A0A3EBE766683068401E34D0401E08D00E383AD1706801780091408831
:200C1C009DA301902DE0A5A328E0C046525353493A25642064426D2C20415647205253530B
:200C3C00493A25642064426D00C046C0436F6E6E656374696F6E2068616E646C65206973FB
:200C5C00206E6F7420696E2074686520636F6E6E4C6973742021212100C095A3706800787A
:200C7C0000902D1D48460022E9B219F077FE3068B0F1004F77D0706818F032FF73E06068BA
:200C9C000078010923D240096DD30E201BF046FA002868D1D8F80420D8F8080091688142D6
:200CBC0013D0B0F1FF3F5ED0116951F830702FB901EBC001486818F053FE54E0116901EB8D
:200CDC00C0014968C0B288474DE0D068F3E70F201BF024FA002846D11648806870B9314986
:200CFC001020152209F0D6FBDBF8000098F80010002274A319F032FE14200DE029491020FF
:200D1C00002209F0C7FBDBF8000098F80010002273A319F023FE00200649886023E06068E3
:200D3C0007784FB1BF1E1ED1022007A917F02EFC72A306E0B8360020002007A917F026FC47
:200D5C0071A39DF81C006D1C0090E9B24846002219F004FE07E06068B0F801000EF0E6FA0D
:200D7C0005E015F069FE606808B118F0B9FE204618F0B6FE6AE6C0466F70436F64653A2595
:200D9C003034780065020210401C0628FFF4DBA91BF008FF0DB0BDE8F08FC046099E010040
:200DBC000D2B02108D150210ED74011040E20100706F7765723A2564202046494E5F434F86
:200DDC0052524553504F4E44494E475F434F444528706F776572293A20256400506173733A
:200DFC00636F64653A20256400C046C0426F6E642073617665207375636365737300C04622
:200E1C00426F6E642073617665206661696C65643A20256400C046C0456E637279707469E8
:200E3C006F6E207375636365737300C0456E6372797074696F6E206661696C65643A2025B1
:200E5C006400C04650616972696E6720737563636573730050616972696E67206661696CA3
:200E7C003A20256400C046C050616972696E67207374617274656400416476205365742045
:200E9C0025642064697361626C656420616674657220636F6E6E20256400C046416476206B
:200EBC005365742025642044697361626C6564004164762053657420256420456E61626CF7
:200EDC00656400C03D3D3D3D3D3D3D3D3D464641444641463D3D3D3D3D3D3D3D3D3D3D00CB
:200EFC003D3D3D3D3D3D3D3D3D214021403D3D3D3D3D3D3D3D3D3D3D00C046C0436861720C
:200F1C0020333A20256400C04368617220313A202564000038B586B004468DF805104FF6C1
:200F3C00FF720120ADF80220090ADFF85C5AADF8000002238DF806108DF8043069462A782D
:200F5C0020461CF0CDFA162803D1297820461CF0C3FA07B030BD3EB504000D461ED0DFF8A7
:200F7C002C0A006822461CF0B3FAFF2815D000200090002301AA2946204610F083F860B9A3
:200F9C009DF8040000F075F9C00606D59DF8040000F06FF910F0040000D001203EBDFEB509
:200FBC00164615244FF6FF7290420D4615D100208DF80400DFF8D0799DF80400F979884221
:200FDC001AD23246294600F03AF800B100249DF80400401C8DF80400EEE71CF075FA50B15C
:200FFC0000F0A6FB40B99DF804003246294600F026F8002400E014242046FEBD7CB50D46DC
:20101C00044606214C43164600F080F8A8B900F078F890B99DF80700002E14BF054320EAF7
:20103C000505E9B2814206D08DF807506A460821A0B219F0EDFD012076BD002076BD2DE99F
:20105C00FC410646344606235C438846154600F05DF8002852D100F054F800284ED1DFF896
:20107C002879387A80001BF07DFA040002D100F02FFA43E0397AE03689062246090EB0B2B3
:20109C0019F09EFD002835D1204600F058F85FEA08000ED13A7A9206120E002120461AF08F
:2010BC0071FB38BB3A7A9200002120461BF09AF816E0214600F030F858B9280004D0214662
:2010DC00002000F029F810B900F0E1FB16E0A0F800808178A9420DD085700DB90021018002
:2010FC00204600F02CF8397A89062246090EB0B219F08EFD00F0CBFB012000E00020BDE827
:20111C00F6810622FF2168461AF03CBB20346A460821A0B219F054BD70B5DFF86C381D7A75
:20113C00002200E0521CD4B2AC4206D231F824608642F7D101EB840070BD002070BD10B5EB
:20115C000021DFF844280AE030F82130DB4320F8213000EB8103491C9C78E4439C70137A7D
:20117C009942F1DB10BD2DE9FE4FDFF81C480646207A0F4691469B4680001BF0F3F95FEA8E
:20119C00000803D100F0A4F90A206CE00C9D0297B246062717FB0AF7029A07F120000821FD
:2011BC0000F064F88DF80400304600F09FF8227A9200FF2140461BF015F89DF8040000902C
:2011DC00E036217A89064246090EB0B219F020FD009E02990643206A082200EBCA001AF097
:2011FC00F7FFBDB10299887900232A4600F001001CF066F900281CBF9DF93C00002803D014
:20121C00DFF88C170120087007F123002A4600F02CF806435FEA090205D007F121001C2138
:20123C0000F024F806435FEA0B0205D007F122001C2100F01BF806430D9A62B107F1240099
:20125C0000F013F8054625370EAA0421B8B219F0DFFC05432E43207D08B100F09EFA404688
:20127C001BF078F9F0B2BDE8FE8F102180B219F0CFBCE0B50623584320306A46082180B257
:20129C0019F09EFC10B99DF807000EBD00200EBDDFF8F406007808210EF0ACBE38B5002588
:2012BC00DFF8E44619E0206A062313FB05F300EBC5022033082198B219F082FC58B1206ACD
:2012DC000622FF2100EBC5001AF08CFF206A00EBC5010022CA716D1CEDB2E1798D42E2DBBF
:2012FC00207D10B1BDE8314057E231BDF8B5DFF89816DFF8A036C9791E680C460A4600E00E
:20131C002A46D5B23DB1551ED2B2324412F8017C8742F5D12C46E4B220464D1E07E017185A
:20133C00165C7F7817541A680244401C5670A8421A68F4DBAC4204DABDE8F840052019F0C1
:20135C0067BCF1BD70B50024DFF83C5600E0641CE879E3B283420BD22B6AE6B20622FF2181
:20137C0003EBC6001AF00EFA0028F0D0E0B270BDDFF82426117839B1DFF8180601680C786E
:20139C00204600F013F8204670BD38B500200024DFF8F45503E0E0B200F008F8641CEA79A4
:2013BC00E1B2914201D20100F5D032BD2DE9F84F83465D46062313FB05F58EB005F12007CE
:2013DC0001AA0821B8B219F0FBFB002873D10622FF2101A81AF0D6F900286CD1DFF8A86535
:2013FC00307A80001BF0BEF85FEA000903D100F06FF80A2061E01C22FF2103A81AF0F2FEFB
:20141C00327A9200FF2148461AF0ECFE05F123040AAA1021A0B219F0D3FB60B91022FF213A
:20143C000AA81AF0AFF930B99DF80A0001A900F001001CF041F8082200F042F801AA08219C
:20145C00B8B219F0E5FB8DF8000003AA05F1210000F03AF8074605F1220003AA00F034F884
:20147C00804603AA1021A0B219F0D2FB044605F1240003AA102100F028F88246253503AA63
:20149C000421A8B248EA070719F0C2FB2743317A9DF800504AEA0707074389060BF1E003B7
:2014BC004A46090E98B219F0B3FB074348461BF051F83D4300E0002528460FB0BDE8F08F66
:2014DC00FF2101A81AF08EBE1C2180B219F0A0BB042019F07DB92DE9F84187B0FF208DF871
:2014FC000000DFF8A454E8791BF03CF8040003D1FFF7EEFF0A2030E01022FF2103A81AF065
:20151C0071FEEA79FF2120461AF06CFE0622FFF7D7FF03AA1021022019F07AFB064603AA78
:20153C001021032019F074FB06436A460121042019F06EFB0746E9792246052019F068FB6A
:20155C00054601AA0621062019F062FB804600F09EF93E432E4348EA060008B0BDE8F08181
:20157C00DFF824144088097819F09EBAF0B5A9B006460D4614461BF0A7FF08B91420ACE06D
:20159C00A422002168461AF02DFEADF800600DF12607DFF8F463F078B17B8DF80400F07B7F
:2015BC008DF8A000279861F30000B17B27908A074CBF0222002220F0020010432790CA0626
:2015DC004CBF4FF48072002220F48070104327908A064CBF4FF40072002220F40070104336
:2015FC0027904A064CBF4FF48062002220F480601043279049074CBF0421002120F00400C3
:20161C0008432790307C02280CBF0120002078741BF04EFF412807DB307C00B108209DF821
:20163C00991008438DF89900B07CB8B10121B974202206F18C010DF139001AF0C9FD202289
:20165C0006F1AC010DF159001AF0C2FD202206F1CC010DF179001AF0BBFD00E0B874707B74
:20167C008DF8050090B1DFF83473102207F110010DF106001AF0ACFD9DF89900082805D1DF
:20169C00102239460DF116001AF0A2FD307B8DF8260030B11022DFF808130DF127001AF036
:2016BC0097FD307948B1022D18BF032D03D1279840F002002790012100E000219DF89900D5
:2016DC000143B0788DF8991000B1042001438DF89910684621461BF0E7FE29B0F0BD2DE96C
:2016FC00FC41154615244FF6FF72904288460DD10027A54EF179F8B2884216D22A464146F2
:20171C00FFF77CFC00B100247F1CF3E71BF0DCFE50B100F00DF840B99DF804002A46414691
:20173C00FFF76CFC002400E014242046BDE8F681002100910023417901AA01F00101801DA7
:20175C000FF0A0BC70B504460D4606204543082B88B0164603D1300758BF223500D5213537
:20177C001C220021FFF7ADFE01AA1C21A8B219F027FA80B99DF81E00C01F0A280BD29DF872
:20179C0030000090F20801AB02F0010206F0010120461BF085FE08B070BD38B51BF07CFE8F
:2017BC000024794D0FE0286A0622FF2100EBC40019F0E8FF28B9286A00EBC40100201BF06D
:2017DC0067FE641CE4B2E8798442ECDB31BD3EB50C46002501460095002301AA20460FF01D
:2017FC0051FC38B99DF80400FFF743FDC00601D401203EBD00203EBD2DE9F041694F3C684B
:20181C0006468846154603E02089B04224D02468002CF9D10C201AF0A5FE040019D02681D6
:20183C0084F80A8000202060E07245B1082128461AF034F9606018B900F029F80AE0606084
:20185C00396811B93C6004E0014608680028FBD10C600CB9152018E01BF016FE08B1002080
:20187C0013E00120E0722A4641463046FFF77EFE04464548C06900281CBF4368002B03D05B
:20189C0000220021304698472046BDE8F08120461AF060BE38B505464248046803E02089D0
:2018BC00A84204D02468002CF9D1012032BDE07A012807D100F05CF820B133480078042134
:2018DC000EF098FBE17A491CE1722846C9B200F002F8002032BD38B5022904462A4D02D0BB
:2018FC0003290DD01EE042F6C921FFF713FB02001CBFE869002818D04368B3B105210CE040
:20191C0042F6A621FFF706FB01001CBFE96900290BD04B684BB102460421204601B0BDE8AB
:20193C0030401847BDE8324000E031BD10B51D4A1468002101E0214624686CB123898342AC
:20195C00F9D1206800290CBF10600860606808B11AF000FEFFF79BFF002010BD02460420DB
:20197C001049096819B10B899342FAD1C87A70470C48006828B1006818B1C17A0029FAD195
:20199C007047002070470000883E0020680F00204C680020E06700204B6800202865002065
:2019BC0058650020E46700202DE9F04385B0064600208946009090461C46B179002304AA47
:2019DC0030460FF05FFB20B1FFF7BCFC8DF810001BE0D4B19DF810300620434323336A4601
:2019FC00102198B219F0ECF878B91022FF21684619F0C8FE48B9B079314600F001001BF0C6
:201A1C005BFD10B1194901200870194F9DF81000F979884227D201200390009443460C98DF
:201A3C000D990E9D019002914A469DF810003146FFF799FB044655B1397A9DF810008906A8
:201A5C00E0302A46090E80B219F0E2F80443200005D09DF81000FFF7A9FCFFF71FFC2046CB
:201A7C0005B0BDE8F0831520FAE700BF4C680020883E00202DE9F84F012018F001F9012845
:201A9C0016D1DFF86866307800211BF0F9FC040004BF002018F09CFE00202072201D10F05D
:201ABC004BFB05F0F9FF050003D181201BF0E4FC18E301206871DFF83826DFF8380641787A
:201ADC00491C4170A879A0724020317811700FF007F92860616D4A78206DD10620D5816CBA
:201AFC000A681179032908D0816C0868007903280CBF0120002018F06BFE206D816C0A6860
:201B1C0090F86C0002F1080701281CBF002018F05FFE216D486F296800F5B060C8604AE0FD
:201B3C00416F0A681179032908D0416F0868007903280CBF0120002018F04AFE206D416F7C
:201B5C000A6890F8A00002F1080701281CBF002018F03EFE226DB5F87401D2F8A8102A68A0
:201B7C00DFF89435DFF89465D16097F82690B9F1030F1BD8DFE809F002050E1101F5B061C7
:201B9C0001E001F53471D16005F59A711888088718880EE001F5355101E001F6B871D1600C
:201BBC0005F59A7130880887308802E001F5B061D160A5F8740106222868DFF84465C16878
:201BDC00DFF8408501F5B471C160B91C3878C0F3801085F82E0105F594701AF0F9FA04227C
:201BFC0007F10E0105F124001AF0F2FA306895F8069000F10C03042207F10E0103EB491083
:201C1C001AF0E6FA3068AB7900EB4313032207F1120103F110001AF0DBFA05F12C09787D8E
:201C3C0089F80200022207F1160105F130001AF0CFFA022207F1180105F132001AF0C8FAB0
:201C5C00022207F11A0105F134001AF0C1FAB9F808006884022207F11C0105F136001AF02E
:201C7C00B7FA99F80200B9F80A10400089F802000901B9F80400A9F80A104000A9F8040017
:201C9C0089B2B9F806004000A9F8060003046A8C521CDB0B5A438A4201D280B230B998F817
:201CBC00000080210EF0A6F93B2123E105F12E0128461BF0DDFB0520A88128461BF0D4FB5E
:201CDC00052207F11E0105F161001AF081FA97F82300400989F800001BF0C2FB688205F5A6
:201CFC009A72618D401AD08005F1610197F82300DFF8147400F01F0089F80F0028461BF0A3
:201D1C00ABFB616D4A78206DD1064CBF816C416F002308680021017141F62101AA79386823
:201D3C0052018152A97900EB41125380A97900EB41104360616DDFF8D4034A78D1060DD536
:201D5C00DFF8CC138A7851060AD5DFF8C823138841F20A418B4208BFDFF8BC03C5F89C011A
:201D7C00D5F89C11284688473A68A97902F10E03490158543868A97900EB41120020D0736F
:201D9C003968A87901F10E024001115C89F80D10606D4178CA061AD595F8960108B918F0E5
:201DBC0017FD3868A97900EB411295F89601411E11743A68A87902EB401100224A7438686A
:201DDC00AA7900F1120152010020885229E03968A87901EB4012206D90F8441011743A68DA
:201DFC00A87902EB4011206D90F845204A743968A879CA4A01EB401110780EF0D7FC226D35
:201E1C0092F8443005F5CB71012003F0030398400870226D92F84400800814BF012002200D
:201E3C000871A87939683368400101F11402034413503868A979DFF8E8A200EB4112B9485B
:201E5C009061DAF814000078C107DAF8141009784CBF1F200F208A07DAF81410097848BF50
:201E7C0040F020004A07DAF81410097848BF40F040000A073168AA7901EB421348BF40F072
:201E9C0080001872A979306800EB41120B2050723168AA7901EB42100421A34A81721078B0
:201EBC00012806D13168A87901EB40120121D17207E0DAF824003168AA79407801EB421317
:201EDC00D8723168A87901EB40121F2111763068AA7900EB421100204876A8790EF044FEA5
:201EFC00AA79316852018850AA7931685201885820B90721284618F0FFFDF3E0DFF82CB2F5
:201F1C00A979DBF8000000EB01101BF0A1FAA8793168DBF8003001EB401203EB0010506065
:201F3C00A979306800EB41125168C9F83C10AA7952018158C9F84410042198F800000EF0B0
:201F5C0059F8616D4A783868D10648BF022109D4A97900EB4112137C03F00303022B14BF1E
:201F7C0004210621B9F8042095F806C04FF4C8738A18698AAA615143B1FBF3F35B1C6B614A
:201F9C0000EB4C10D5F800E0DEF80CC040F6C41101FB02C2D21AA2F5A86282603868AA7992
:201FBC0000EB42139A682B689A6000F10C03AA7952010C309B5C03F0EF038354A8793A680E
:201FDC00400102F10C030C321B5C03F07F031354A8793A68400102F10C030C321B5C03F063
:201FFC00F00343F0020313543868AB7900EB4310427B02F0F00242F0010242733868AA79E3
:20201C0000EB421398682A6810613068AA7999F802C000F1140368694000520111FB0C00CF
:20203C0000F5F660985095F8960104280DD13068AA7900F114034FEA421C143053F80C200E
:20205C00AB795B0102F56162C2503068AA7900F114034FEA421C53F80C20C5F83421AA7912
:20207C0000EB4210C37C03F0F00343F00403C374DAF830003268AB79006802EB431CB9F84C
:20209C00062042436423B2FBF3F35943A1F59661CCF81C103068A97900EB4110C27E02F01E
:2020BC00F00242F00402C2763868A97900EB4112286842600E2128461BF0C6F91C4907207D
:2020DC000870204617F074F81A488178880704D5AA79002120461BF0B3F928681649174A1F
:2020FC0041618261BDE8F14F03F0EABAD50F0020D70F0020780E00208E0F0020900F002097
:20211C009C0E0020C70F0020980E002081010210C00C00209A0F00204DE50110CA0F002098
:20213C00D4150200980C0020CC0F0020A40E0020C80F0020200E002055DC0000020480808B
:20215C002DE9F84F054688B0A978DFF84466002710294FF0060A3CD8DFE811F0110015032D
:20217C001503150315033C00CF0015031503780215010001CA0215034E0290020D03687879
:20219C00002826D11BF058F904461BF051F905461BF04AF98DF8000022461021022018F028
:2021BC0037FD2A461021032018F032FD6A460121042018F02DFD9DF80000012818BF0328EC
:2021DC0007D101201BF02CF902460621062018F01FFDD8E268780028FBD195F80CB06C8935
:2021FC0000900023E97801AA01F00101281D0EF049FF00284FF0010875D19DF80400FFF741
:20221C0038F88146BBF1080F307A08BFB84680001AF0A8F9050003D1042018F0D9FAB2E2E2
:20223C0070789DF8041002280CBF0120002000905B464A462046FFF785FA1422002102A81E
:20225C0019F0D0FF9DF804001AFB00F0243002AA102180B218F0B4FCB0B91022FF2102A86C
:20227C0019F090FA80B99DF804001AFB00FA0AF1250306AA042198B218F0A2FC02AA09F041
:20229C00010120461BF0C8F8317A9DF804008906E0302A46090E80B218F092FC98B92846FE
:2022BC00FEF74DFFBA4609E005EB8000018819B18278204619F0A8F80AF1010A317A5FFA02
:2022DC008AF08842F0D3B07A30B95FEA897003D53178204618F0E8FB9DF80400FFF706F827
:2022FC0028461AF037F97078022805D1B8F1000F02D0204614F044F945E2A888FFF716FBA3
:20231C001BF086F80028F7D1707D012808D1FFF73CF8F279706A7775002119F063FF17E05B
:20233C00B07D012803D1FFF7D6F8B77510E000240AE0706AE5B2415D012904D1E0B2FFF7D3
:20235C0035F8716A4F55641CE0B2F1798842F0D3502019F099F9FEF7A1FF14E21BF094F87F
:20237C0000280CD0F06900281CBF0468002C07D0286900906B7B2A7B6989E81CA04701E206
:20239C0068890121F4E168780024002840F01D81A879C10740F119810822002105A819F08A
:2023BC0021FFA8881BF090F8040076D06F694FB30622002107F1110019F0E4F968B306227F
:2023DC000021384619F0DEF9D0B9387C00F001084FF0000909F1010987F811900020009010
:2023FC0000230022414607F111000EF04BFE00285FFA89F002D10028ECD101E000280CD10D
:20241C00002068610622607900F001008DF81A00A11D05A819F0DCFE1FE06F69EFB1387CAD
:20243C0000F001008DF81A00062207F1110105A819F0CEFE6079012805D10622A11D04F189
:20245C000C0019F0C5FE062207F11101A01D19F0BFFE387C40F002006071A879410720791A
:20247C004CBF40F0020000F0FD002071A9790A0754BF00F0DF0040F020002071A9799DF8D8
:20249C001B00890801F0010108438DF81B00A9790A074CBF0821002108E0FFF769FA0028A5
:2024BC00ECD0307804210DF0A5FDE7E708438DF81B000020009000239DF81A1004AA05A832
:2024DC000EF0E0FD20B1FEF73DFF8DF810001AE06869C0B19DF810001AFB00FA0AF123035D
:2024FC006A46102198B218F06BFB60B91022FF21684619F047F930B99DF81A0005A900F08F
:20251C0001001AF0D9FF9DF81000F179884258D2E968686900290CBF00220A690023039355
:20253C000292019100902B69AA689DF8100005A9FEF719FE0446AF88B06A4FF6FF7848B96C
:20255C0006F1180100910223924A414601201AF05BFFB062B16A19B3FF20039002220023BF
:20257C000292019307A800900DF11203328B384606F052FA68B99DF812009DF8131000EBDD
:20259C00012290B228B1B06A418992B23846FEF706FD328BB06A002341461AF031FFB06276
:2025BC00200005D09DF81000FEF700FFFEF776FE200007D1707A0028A88804D1FFF76AF9A0
:2025DC0003E01524A888FFF7B1F9F06900281CBF4368002B0FD06A78A888012198476878EF
:2025FC00002808D1A879C10705D5F369A88822465C680321A047BEE0687806281BD1A88870
:20261C001AF062FFB8B1F17C012904D013D3032907D00CD30FE04179A8880022FFF7ECF8C2
:20263C0009E00022002140F2094004F0B7FAA88805211AF0E1FEF06900281CBF4368002BC1
:20265C0003D06A78A888022198479BE000970023E97801AA01F00101281D0EF013FD0028C8
:20267C00F3D19DF804001AFB00FA0AF1250305F10C02042198B218F0CBFA83E0F06900288B
:20269C001CBF4368002B03D0A888002200219847707810B9A88805216AE0A8881AF014FFAA
:2026BC00040070D0A87AC10712D5009700236179002201F00101A01D0EF0E4FC00281EBFA0
:2026DC0060790028012803D0E868C0F3402028B1307C022807D1A87A010704D4A8880321A1
:2026FC001AF086FE4FE06179A88805F1080227E02F7BAD8828461AF0E7FE040042D01AF094
:20271C00C3FE00283ED100900023617901AA01F00101A01D0EF0B6FC28BB9DF80400FEF79C
:20273C00A8FD07F00C07042F11D0082F0BD00C2F0FD100F0090109290BD06179002228461C
:20275C00FFF75AF81EE010F0090F02D1F5E7C107F3D501220092A37C9DF80410024628468D
:20277C00FEF7F0FF0EE070780028E6D1052128461AF03EFE06E0FFF7FBF818B13078042165
:20279C000DF038FC0127384609B0BDE8F08F00BF883E0020D2160200D14AD24B2DE9F04F4D
:2027BC0005461168DFF834931878AA789846ADF1240D401C002A00F09781C74E521FB9A3CC
:2027DC00BFA400F0C680521E4FD0521E1ED00A3A40F03C82A888AF7BADF8080068898DF8A8
:2027FC00127060B9ADF80E00A889ADF81000E988ADF80A102F89ADF80C70012000E000205F
:20281C00B3498DF8130002AA0C4627E1B149AA88102002AB07F03EFEB148EF7898F8006076
:20283C000468B61C37B90DF10A0014F0A7FE8EA3009007E00DF10A0014F0A0FEA978009199
:20285C008FA30190F1B22046002218F087F84846303018F0D2FC041C00F0008220890CF0EC
:20287C0065FD204617F03CF9F8E1314610201A4607F010FE5FFA80FA994898F80010006897
:20289C00002289A3491CC9B218F068F8CDF800A0934898F80010006800222346891CC9B293
:2028BC0018F05CF8A888834619F0CEF808282DD0C4004E4604EB0014A419D4F8A47104F5B9
:2028DC00CE747FB138461AF07FF910B138461AF067F938461AF088FD384617F001F960686D
:2028FC0017F0FEF8303637685C464FB13889844203D13046394618F04FFA3F68002FF5D1DB
:20291C00204616F02DF9204612F080FEBAF1000F4E4608D106F14C001AF042F9CA4802213F
:20293C00012218F0C5F900240094CE4DF27810202346294607F0AEFD0094327910202346D3
:20295C00294607F0A7FD664898F800700168F81C7EE1314610201A4607F09CFD5FFA80FB5C
:20297C00CDF800B05E4898F80010006800222346891CC9B217F0F2FF6878002850D16F8954
:20299C0009F5CE7A082000244FF6FF72AAF1180636F8181F8A4204D0401E04F10104F7D1F5
:2029BC0026E0378003201AF09FF87060D0B1082101707068A0F8017024201AF095F8B060C3
:2029DC0018B9706817F08CF80CE0E00000EB0410504441680091AF49806841F270720123F5
:2029FC0015F016FAE000012100EB0410504401753B4898F800400668281D14F0BFFD641C55
:202A1C000090002298A3E1B2304617F0A7FF8E480121022218F04CF909F14C001AF0BEF888
:202A3C00BBF1080F4E4612DAB07880B9002500958C4CF27810202B46214607F02BFD2B4642
:202A5C00009332791020214607F024FD06E1924C32791020214607F01DFDF2782146102054
:202A7C0007F018FDFAE0C0464C696E6B20506172616D20557064617465643A20257300C016
:202A9C004C696E6B20506172616D20557064617465204661696C656420307825783A2025AF
:202ABC007300C04600C046C044657669636520446973636F6E6E65637465642100C046C091
:202ADC004E756D20436F6E6E733A20256400C046D9570110F9DC0110BD880100B836002025
:202AFC001C480020304800206F78002F40F0B680EF798DF809702E7A8DF80A60EB7A8DF83B
:202B1C000F3000248DF80C40AA798DF80B40AF7A8DF808206E7A8DF80E70604B8DF80D6014
:202B3C0002AF3E681E607A685A60C6B2084652A32246314617F012FFDFF868A14E46F01CD6
:202B5C005A4F57490090524607F14003102007F0A1FCC0B208B119F02AFA4FF00B0907F146
:202B7C001400CDF8009050490190F2782346102007F090FCC0B208B119F019FA1C2007F1A5
:202B9C005C03009048490193F2781020012307F081FCC0B208B119F00AFADFF814B1F27895
:202BBC0010209223594607F075FC00942D49F2781020234607F06EFCC0B208B119F0F7F97B
:202BDC00301D37490090524607F17803102007F061FCC0B208B119F0EAF9CDF800901F372B
:202BFC000197314932791020234607F053FCC0B208B119F0DCF9327910205946922307F0EE
:202C1C0049FC0094174932791020234607F042FCC0B208B119F0CBF9264898F80060076821
:202C3C00A81D14F0ABFCB61D19A10091224615A30190F1B2384617F091FE034802212246AC
:202C5C0018F036F80AE0C04648610020421CD4B2C2B208461146224619F072FD09B0BDE82E
:202C7C00F08FC046ED740110436F6E6E656374656420746F20257300496E697469616C69C0
:202C9C007A656400257320416464723A2025730044657600D59D0100650202102339002029
:202CBC0099010110DBAD010011EC0000D84000201DEF01101C4800202DE9FE4F0446002021
:202CDC00009080460CB917F083FD04F1500A41F62300DAF800603080A6F8028002223273C2
:202CFC007273694620460DF017FB08B9072041E2009901B1B060B0682061DFF87C040178E0
:202D1C0084F8C010DAF80400407A15F0B7FB25302076207EB07386F80F80DAF80400017DF7
:202D3C00022904BF002017F053FDDAF80400007D012802D10020002104E083280CBF062002
:202D5C0002202021307404F124077174314678790DF02CFDDAF80400417848060AD5607D24
:202D7C00C10604D5E07F40F04000E07702E040F04000607506F1600504F1300085F80480C8
:202D9C004FF01E09B97E890001F0040129713067607DC10654D5DAF8042051788A060CD5CD
:202DBC0000F0FE006075DAF80400417811F0030F03D1E07F00F0FE00E077607D1AF010FB28
:202DDC00A075421C307CC0F38001002392B200F003001AF001FBA0831E20A18B01F59B7294
:202DFC0092FBF0F009FB1020C0B208B1C0F11E00411801F59B7161831E20A18B01F5967176
:202E1C008AB292FBF0F009FB1020A183C0B208B1C0F11E004018A08380B2E27D618B521E33
:202E3C0050434018608306F13408608BB4308000B0660620E871E17F41F00801E17721E09E
:202E5C0040F001006075DAF804104A78510744BF40F002006075607D1AF0C2FAA07500236B
:202E7C00401C82B2307CC0F3800100F003001AF0B3FAA083A08B00F59670A083C6F868800A
:202E9C0085F80780A17D207D61F3050006F19001207508700322607D48708A704FF0000B6B
:202EBC00B87E800000F0040040F003008870FA7ED20002F00802104388700020C870C6F87A
:202EDC009800B88BC0F30B00B883DAF80410CA7D40EA0230B8830022617D01F0FE012046E8
:202EFC000CF034FD019617E004EB4B160199202206F1640019F06CF906F16C00052101710B
:202F1C0006F16401A28B9200026078790DF04EFC0BF101005FFA80FBE07D401E8345E3DBCE
:202F3C00019E204610F028FFE07D012809D014D3032809D03EBF04F164007060CAF818807F
:202F5C000BE0C6F8048008E004F16400706004F18401CAF81810CAF8388041F62400B086A8
:202F7C000021F18606F14008B068618B00EB8100F0630221822088F8000088F801100021A4
:202F9C0094F8210088F8031000F03F0088F80200DAF80400807D012818BF022803D100F063
:202FBC007F00401E04E083280CBF06200220202188F8040088F80510DFF8C0B1DBF83C00C5
:202FDC00416908687A7902EB82028118D1F80100A8F8060000207067DAF80410487810F0B1
:202FFC00030F1FD01AF0F4F97067DBF818000078C107DBF8181009784CBF1F200F208A0735
:20301C00DBF81810097848BF40F020004A07DBF81810097848BF40F040000A0748BF40F035
:20303C008000287600206876DAF80410544A897C01F003016976B87E800000F0040001430D
:20305C006976F87EC00000F00800014341F010016976107828B1287E00F0FE0041F040017B
:20307C0028766976E07F1AF0BBF984F8200020461AF0AAF9E07FC10636D5DAF8040094F858
:20309C0020204178521C88074EBFD21EF87F121898F80400C0F380010023D2B200F003001E
:2030BC001AF09AF93880388800F59670C0F11E0190FBF9F009FB001987F80490DAF804108A
:2030DC004878810739884CBF00204FF49B70401838807880F06B39883A795218A63200EB4E
:2030FC008200F067022001E00020F067E87604F13000C6F8880006F18C00DAF804104A786D
:20311C00510706D504F138020260687E40F0200006E01C490A6851680160687E00F0DF000D
:20313C006876A17F94F8200060F30501A17740F60B00A8F814000021A8F81610DBF8380071
:20315C0000888000F065DBF83800008800B1072028700220687094F845106980DAF8040059
:20317C004178880744BF01216980009808B10BF0F9FF0020BDE8FE8F42680020D415020092
:20319C00880E00206C0F00202DE9F04FC54D4FF0000A5046ADF1140D0146C5F810A01AF0FF
:2031BC000FF9A860504601461AF00AF95146E86005F114032A46382012F09EFBC14CC24893
:2031DC00C54F04F110063060786880478046C049BE48C160BF4901610FF0EEF8B968404691
:2031FC00884706F1040BB84606F1080002900C3E039663E0103018F097F8A06100B303217A
:20321C000170FF2747706178029E8170E1886FF31F318180E188C1F30131817161880A2367
:20323C00018131686788237001F11002002FC26040F0DB812369002B00F0B98110202DE1D5
:20325C0084F800A018F090F818B1686901211AF0B3F80498C00826D3E8681AF045F9D0B9B7
:20327C00E8681AF0A5F8071C15D0A96969B1687858B1401E02D0401E0AD103E0B86818F0AA
:20329C0093F8A969B868884702E0B86818F08CF8384616F025FCE8681AF026F918B9686938
:2032BC0004211AF089F80498800807D3A8681AF01BF918B9686908211AF07EF86869C74AE9
:2032DC0051464FF0FF331AF017F90490D8F804008047D8F80810884701A80DF106016A466C
:2032FC0016F054FE60BB28789DF80610884227D1009815F075FA071C22D00C2019F0F4FBED
:20331C00061C1AD0D8F804008047B7603B78814643B9A86831461AF047F8686908211AF089
:20333C004BF805E0304616F0DBFB384616F0D8FBD8F808104846884702E0384616F0D0FB2A
:20335C00049800092DD3A8681AF0CEF808BB19F01BFAF0B9D8F8040080470646A8681AF041
:20337C00C3F890B9A8681AF01BF8071C0DD0B86840682861B9684868498810F045F8B868B0
:20339C0016F0AEFB384616F0ABFBD8F8081030468847A8681AF0A8F818B9686908211AF07C
:2033BC000BF804984008FFF454AF1EE12089401E87B2002F278100F0FA8016E1A7696189A3
:2033DC009DF80700FA6850546089401C83B2638117F0CAFF61880646C91AB1420CDBF868AF
:2033FC003146C01816F0E4FB6089801981B260886181884207D0F8E0F86889B2C01816F00C
:20341C00D7FB608860812369002B00F0D08002990968103080B241E09DF807106088A4F82F
:20343C000AA040EA0120B0F5D26F60807FF7E2AEA0E06769A38960899DF807107A68C018E4
:20345C0011546089401C86B2668117F08DFF61888146891B49450EDB78689B1949461B18D3
:20347C00184616F0A5FB6089484481B260886181884209D0B9E078689B1989B21B1818461E
:20349C0016F096FB608860812369002B00F08F80A1890918083188B2DBF8001052469847E2
:2034BC0085E0C0465C42002061786088092915D004209DF80710A0819DF80700618004215C
:2034DC0013E0C0462C470020896D010070180020E5B30100654401003040002005219DF817
:2034FC000770A18140EA07206080B0F5D26FA4F80AA03FDC091801F1080017F015FF6061A8
:20351C0078B3DBF80010627808314160039B0A704268197851704268597891706788617875
:20353C0009291CBF4168CF7004D14168CF7042683E121671FF214170A1883F22B2EBA12F74
:20355C000AD1C1F3C2163EB1932101704168887800F00300887001E0022101700520207016
:20357C0000E06788002F40D1236903B3A089083080B291E720810B2009E067789DF8071093
:20359C00A088092F40EA0120A08002D0042020702BE00320FBE79DF807009DF80770607036
:2035BC007F1E07D07F1E012F06D9FF1F02D084F800A01AE00120EAE70620E8E7092010E0C9
:2035DC0008279DF80710E088277040EA0120E0800BE007219DF807002170F8E74F0000805C
:2035FC00042020709DF80700608017F0BDFE00283FF428AE0DF10700012116F0D9FA2078F4
:20361C000B28F2D8800001A109588F46B33500005936000097350000FD350000C5340000CB
:20363C004F340000EF350000DD350000D935000035340000D9330000C93300000227277076
:20365C009DF80700A080D0E72DE9FC47D44C0F460646F80B80F00C826078B90F80F0AC8183
:20367C00B90880F09F81DFF84C83F90A80F00281390B80F0CC80380907D2F80FC0F02E82C0
:20369C0027F0804711F08CFF28E219F025FA814617F0AAFF002800F0B480082019F0DAF8AC
:2036BC00002840F0AE80802019F0D4F8002840F0A88068460FF0EAF8012803D10098002827
:2036DC0000F09F8094F84102002840F09A8000250126E8B218F072FD48B1837A3BB1867247
:2036FC0090F9090006FA00F0C0B216F0FDFA6D1C032DEED3032084F8240004F5CE7019F040
:20371C00E5F9484619F048FEC34800252A460168056050F8081CD44940F8085C04F16000EA
:20373C0017F0F2FD40460068006B8047A168401A010BE06AC1F1FF3282422CBF08444FF081
:20375C00FF30E06294F8300020B12069E16AB1EBC02F25D917F058FF294600B13146081CD9
:20377C001BD0C24840F6090101804580417B06F00F0221F00F010A434273017B05F00F0349
:20379C0021F00F0143EA010202732946416018F0C9FE418811F4406FFBD084F83060E562CD
:2037BC0014F0CCFBD14829460560022017F0F4FB022016F057FD10200DF0B8F8207818B95B
:2037DC006068503019F0D4F9C948007810B90D200DF0ACF894F8310020B184F831500520DF
:2037FC0016F040FDC348A06284F82450B4F9B400B4F9B610884214BF0220072010F0F2F8C9
:20381C0002E0484619F0C8FD27F008073AE720B1042016F027FD00206070656815F0F8FF2F
:20383C0038B128462D6A6FF4807100224FF00073A847E06858B140460068006B8047E268AC
:20385C006168801AC860000BC8600026E660AA4904F16000002217F057FD0221D4F8A000CE
:20387C0084F8241018B104F1E00019F093F927F4006707E719F030F9064617F0B5FED4F8D5
:20389C0098100028894600F08480002900F081809A49042504F16000002284F8245017F0E5
:2038BC0033FD304619F078FD04F5CE7019F00EF940460068006B8047E0604FF0010884F85D
:2038DC000180284616F0E6FCD9F810006060D9F81000816AC90803D3436A294600229847C4
:2038FC00404612F01DFE606880F8198060680DF0B3FA6568D5F808A040F60A02D01F5646AF
:20391C0000F1010C00E01E46736833B119888A4203D0884218BF8C45F5D100217160727B33
:20393C0008F00F0322F00F0213437373D9F80C201288904224D06046904221D02B8F03B3CC
:20395C00E96305F13802518095F8440001F00F0320F00F00034385F8443095F8450008F00A
:20397C000F0320F00F00034385F845307260707B01F00F0520F00F0045EA0001717300E0ED
:20399C00E160504618F0CEFD5146404617F004FB02E0304619F000FD27F480679EE0C0465A
:2039BC00B031002007F01CFED4F8A00008B927F0020793E08C010010514A116841F08001B6
:2039DC00116020B1042016F04DFC0020607019F083F880464B480068016804208847216AFA
:2039FC0081421BD1357ECDB1A568BDB1D4F8A8506DB1E968098840F60300884204D0E96864
:203A1C000988401C884202D106F1140001E006F1100015F045F806E01410044040F6C41172
:203A3C00316171612062404619F0B6FC15F0F0FE80B1356A30466FF4807100224FF00073E2
:203A5C00A847D4F89800002808BF47F0020701D011F0A6FDF569002130464FF080630A46EC
:203A7C00A84727F0005739E0F96901001867002019F032F8D4F8B06066B306F1280106C99B
:203A9C000A234FF0E0450B40154008BF002B21D106F1280191E8000306F1280595E80600B2
:203ABC0006F1280322EA090221EA080183E8060019F072FCB16879B1B9F1000F08BFB8F149
:203ADC00000F09D03069B6F93010B5684B464246A84701E019F060FC27F4804727B104F140
:203AFC00E000394619F056F8BDE8FC8700000460FE12020021EB000069DF0000E5B5010067
:203B1C00CC210840E00100102DE9F04F85B00D460295044615F8011BDFF858A48DF8011013
:203B3C000022DFF8541488788DF8002004F5A47618F080FC01902C219DF80100DFF83C2421
:203B5C00032804F2191804F1660B04F1F40904F5C77700F0C880072800F0C8810F280CD0B5
:203B7C00112800F03981182800F08F811A2800F04A811B2800F07981D8E199F809108807EA
:203B9C0003D40F2188F8001059E02878697800EB01223280A878E97800EB012272802879D6
:203BBC00697900EB0122B280A879E97900EB0122F280287A3072697AA87A01EB002272817A
:203BDC00E87A297B00EB0122B281687BA97B00EB0122F281E87B297C00EB01223282687C4C
:203BFC00A97C00EB01227282E87C297D00EB0122B282687DA97D00EB0122DFF88403F2824B
:203C1C0001788A0658BF1A2712D504F5AA70049071890391307A029021890191F08800908B
:203C3C00B38872883188204619F0B2FBC8B11E2799F80900410706D40F2088F800002046CF
:203C5C0019F0A2FB06E13A460F21204619F098FBF0880090B3887288A179384613F068FBCE
:203C7C00FFE004F18600718881800023B288C2800222F188018102704380A18EC91DABF829
:203C9C001E10628E8188B1EB520F02BFC188A28E914202BF0089E18EB0EB111F21D09BF8CF
:203CBC001000012804BF9BF811000F280CD09BF8150000281CBF9BF811001A2804D00F21A0
:203CDC008BF81A10FE2183E0FC21204619F0BCFBF0880090B38872883188A07919F04CFBF7
:203CFC00BFE0102174E099F80900C1070BD499F800101A20012989F8010002D1FF220D219A
:203D1C003FE00D2164E000208BF800008BF80600012289F804202946082204F1B00019F0BB
:203D3C0027FB0146022204F1B80019F021FB04F1A80701460822384619F01AFB06460821E2
:203D5C00384619F011FB04F19C0704223146384619F00EFB0421384619F006FB04F1A000AD
:203D7C0019F0FEFA04F1980019F0F6FA8548018841F08001018099F80000012805D1FF2266
:203D9C000421204619F0E4FA6BE09BF811600F2E18BF142E07D00E2E18BF0C2E03D01A2EB1
:203DBC0018BF162E13D19BF81070204619F0CCFA0421204619F048FB012F06D11A2E8BF8F7
:203DDC001A6014BFFD21FB2102E0314600E00421204619F039FB44E0287830761A286B78B0
:203DFC00737659D11068A779431C4F430020D855A379126811FB03F111440871A179707E52
:203E1C000EF0BFFE2DE094F806C010682E7811FB0CFC604400F1210506F01F032878B60908
:203E3C0030B16878F040C00702D5387A042805D120221A21204619F0A3FA12E0EB701068D5
:203E5C00A27911FB02F10144204681F82360002118F078FE28B99AF800004FF480410CF073
:203E7C00C9F801208DF8000064E0A67913684E433344D88808B900265E701068A27911FB25
:203E9C0002F1014400200871EBE728786978884204BF084010F0070F48D19BF811001628FC
:203EBC0005D13A7AA179134600200BF0D7FF022038710121019841770123387A397BB87008
:203EDC00B28E19F03DFA318E814206D3B28E397BB878012319F034FA0146B87A398040F00A
:203EFC004000B872012188F81F10BAE728780F2816D01A281AD1A079136848431844002342
:203F1C004370A079126811FB00F15018037199F80B0000F0FB0089F80B001A20A1796FE7A9
:203F3C0099F8090000F0FD0089F809002046029919F002FA9BF811001A2815D19BF81200DD
:203F5C0017281CBF1028FC280ED19BF81060204619F0FAF9012E03BF1A208BF81A00FB21A7
:203F7C001A21204619F070FA9DF8000005B0BDE8F08F00BFC70F0020780E0020BC67002005
:203F9C00200E00209C0F00202DE9FE4F0546DFF83004DFF830640278002A4CD0052A73D096
:203FBC00062A00F08080072A18BF082A00F0F7800A2A00F0D881112A02D0132A70D0F6E146
:203FDC00DFF804341878002119F05AFA04001EBF606D407810F00C0F2DD0216DC0064CBFCB
:203FFC00886C486F0622016801F10805A91C684618F0EEF8287800F00F0105291BD1450901
:20401C006946C0F3801019F093F9002813D03168684619F089F90746316804F1380019F004
:20403C0083F987420DD0606D4178C80604D440F2014019F075F9C0E1607B40F002006073AB
:20405C00BBE133681E2010FB07F6981906226946C01D18F0BDF8606D4178C806F0D5A17B70
:20407C000129EDD1DFF864038178480605D5E90703D4206D41F20A4102E0206D41F2044124
:20409C0041804183418698E118F05AFD0028FAD110F0A4FE012802D0012019F03DF98CE183
:2040BC0011F039F989E1DFF82853286819F030F90400F7D020790328F4D1207A00F00F0145
:2040DC00072937D1C34800684169497A4A1E11425ED0617A04F10A035A5C02F03F02252AAE
:2040FC0056DBA17A8A09012A52D111F03F0F4FD0007C18F009F8E17ACA074CBF04F1110245
:20411C0004F10B028B0748BF921D0B0748BF921CC90648BFD21C1621127852094A43AE490E
:20413C008B180A31EB608A5A428699898186DA89C2862DE000F00F00082829D1A17A8809D8
:20415C0026D129B3A3480168087C17F0DDFFE17A074688071CD5062201F001015143601866
:20417C0000F10C01684618F033F8207AC009FF280ED0694619F0DCF850B1306800F10D01B8
:20419C00684619F0C1F818B90521384616F0B4FC2079032802D0002016F01AFB03E1DFF8DC
:2041BC003CB29BF802000024FF281BD017F0ACFF804608F16C09D9F8040019F0A9F82A4655
:2041DC000179032901D011000CD08368197801F003008D06009003D50124009818B9BFE0C7
:2041FC001000FAD0E9E05D7803F1020A34B31AF8010B7B4B01902C2098F806C01F6810FB9B
:20421C000CFC67444FF0010E87F805E0002A1F6898F806E007F11A0C019F10FB0EFE07F02A
:20423C001F070CF80E7098F806701B6810FB07F01844019BC3F38113C3761AD10098032806
:20425C0008F217171AD0ADB199F8000068B108F1F4000278012A0DD1594B1A78072A04D07D
:20427C00082A04BFC078012804D13D21797001203870A2E05B4A1378012BFAD098F894001B
:20429C0070B32D1FEDB253462A4640460FF0B4FD00281EBF54490878002807D13D2179704C
:2042BC0001203870306819F02BF886E04F4801688847064698F80610DBF804204FF4D070B4
:2042DC0041435018002280F8412108F59E7001688079490810F0A8F945490A68304690472E
:2042FC00009803281ED043494869007882070DD598F894004A691178002814BF281D2846C3
:20431C00CA0748BFC01C1AF8000000E0812089F808002A460098C3B29BF80200514606F012
:20433C00EBFD1DE09AF800001CB11B2804BF022D01251C2803D230490B5C9D4205D0B870ED
:20435C000721404619F080F80AE01D48017808295146404602D118F0BBFB01E0FFF7D4FBC5
:20437C00D9F8040020E0254C207830B3244D286818F0CEFF08B3017903291ED1017A8A062F
:20439C0011D5807AE178C0F38112914202BF217900F01F00814206D1A078002801BF6078D3
:2043BC0000280121A170286818F0A6FF05E0002016F00EFA862019F05FF8BDE8F78F00BF46
:2043DC00C80F0020680F0020D50F0020C00C0020BC0A0020540F0020E0070020780E00202D
:2043FC00BC670020D20F0020476800203440002038400020D41502006C160200606700200C
:20441C00AC0C00202DE9F84FDFF83454A9780024FF2904BF002016F0DBF9A87817F074FE29
:20443C00054605F1680605F5C9773168086805F1900808B1EC8311E0B07B002804BFB07E83
:20445C0000280BD198F80010002904BF3878002804D1287F012804BF688CE8832989E88BEC
:20447C004118491C6981284618F042FF01281EBFDFF8D0030178012903D12989EC83491C14
:20449C0069814FF6FF79B07E01280DD1B28B6989288918F029FF38B1298968894A1C93B2DD
:2044BC0098422FD0B08B23E098F8000001280FD1B8F802206989288918F016FF40B12989FB
:2044DC0068894A1C93B298421CD0B8F802000FE03878012816D17A886989288918F004FF4D
:2044FC0080B1298968894A1C93B298420AD0788892B2904206D04844688180B218F0F0FEE4
:20451C004844E883387801280FD128897988401C80B2884209DB7C793C710220387023460C
:20453C00A979224600200BF099FC05F59A71087920B128890021401CE983688105F12E081F
:20455C00B07E012812D12989B08B4B1C9BB298420CD1688118F0C4FE8146B8F80410308CB3
:20457C0001FB090928460FF0C1FD01E0B8F80490EA8BDFF8D4A2501C00FB09F040F6C4198C
:20459C0009FB00F100912B68D3F80CE07144D960AE4B196809788909032940F006819AF83F
:2045BC000F30AB49DB0740F1F080B5F812C000230CFB00FC4FF4C87EBCFBFEFC0CF1010C40
:2045DC000B80A861C5F814C085F82020DFF884B2AB79DBF8000000F108025B01D1582A68C7
:2045FC00116100F10801AB79D26868695B01121ACA50DBF80000AB7900F108025B01D158EB
:20461C002A68916000F10C02A97949010C30535C03F0F00343F002034354DBF80010A879EC
:20463C008A1C400100211152387908B916F0D0F8DBF80000AA7900F110013879520140086F
:20465C008854DBF80010A87901EB4012002151743879042812D1A879DBF80010400101F143
:20467C0010021031135C3A7A43EA82030B54DBF80000AA7900EB421120204874DBF8001084
:20469C00A87901F112024001002111527249A8790A6802F114034FEA401C143253F80C0088
:2046BC00AB79D5F814C05B0100EB4C00D050B07E02280DD10A68AE7902F1140376011432D0
:2046DC009859AB7998F800605B0119FB0600D0509AF80F00C20771D5DBF80000AC7900F18A
:2046FC000803640108301A59AB795B01A2F5A862C250DBF80000AC7900F1080364011A5984
:20471C002B689A600098121A1A610868AC7900F11403640114301A59AB795B0102F5F66229
:20473C00C250387904280BD10868AC7900F11403640114301A59AB795B0102F56162C2508D
:20475C000868AB7900F114025B01D058C5F83401424A106B0B68AC79006803EB4416B8F82D
:20477C00043043436424B3FBF4F409FB04F0A0F59660F0613A480378012B49D10868A9799C
:20479C0000EB41120120D07249E00B885B1C1FFA83FCBCF1010F11BFB5F812C005F59A7E73
:2047BC00BEF806C00CF2DC5C02E7698A41434FF4C873B1FBF3FC0CF1010C02E7042C0BD1B3
:2047DC000868AC7900F11403640114301A59AB795B0102F56162C25038790A68AC79042844
:2047FC000CBF4FF4AA504FF4E66002F1140364011A59101AB8F8042009FB02F2A2F5167215
:20481C009042A5D30821284616F076F9012014E0506A0968AA79407801EB4213D872DBF8AD
:20483C000010A87901EB401229684A6007200D4A1070284610F00AFB0020BDE8F28F00BF3C
:20485C00780E0020D10F0020980C00203C0F002034680020980E00209C0E0020D415020030
:20487C00CC0F0020C80F00202DE9F04F0F46380589B018D5DFF8E4532888FF280ED0C0B2E8
:20489C0017F042FC040009D0A079162118F024FD204617F02FFC204618F01AFDFF2028807D
:2048BC0087F40060D6E1F80504D512F06EFC87F48070CFE1B80604D515F0F7F887F02000CB
:2048DC00C8E1F8070CD517F0DDFD30B100218160DFF88C03006800B1804787F00100B9E117
:2048FC00380704D516F0B7F887F00800B2E1F8060FD500210022002306910592049103931C
:20491C00029101920091022018F0DEFC87F01000A0E1B8070FD5002100230691059104910F
:20493C00039302910191009101223C2018F0CCFC87F002008EE179074FF01E08C94EDFF805
:20495C0028A340F1CD80C9480022002108920791007818F095FD0446C5488178FF2904BF1F
:20497C00002015F035FFA07A17F0CEFB05469AF8000095F82E91002805F5947B69D0606D78
:20499C00807A022818BF032807D130680D3018F097FC10B93068C11D07915946484618F081
:2049BC00C7FCA0B3606D807C3368002818BF012804D11946584618F0B7FC04E05A46494699
:2049DC00184618F085FDFF2843D018FB00F83068404406225946C01D17F0FAFB306810F832
:2049FC000810404400F1010BC01D41F0020908900622616DC87A00F0010085F82E01606DAF
:204A1C0000F10C0105F5947017F0E2FB21E05946484618F051FCE0B130685A46494618F0B7
:204A3C0057FDFF2815D018FB00F8306840440D3018F046FC58B9306840440D3018F040FC9E
:204A5C00002801BF30684044417F012901D149F0020905F12C004B4601780691428912098D
:204A7C0005920122698C0491C0880899029140080390CDF800B0079801900020A97918F090
:204A9C0023FCD5F89C017B498842A8790CBF0021012118F00DFC7848AB7902682C214B437A
:204ABC00134401221A73AB7904684B4323445A73AB7904684B4323449A73AB7904684B43D1
:204ADC002344DA73AB79006811FB03F10144002008740720A9790FF00CFF87F00400B9E032
:204AFC0038060FD500210023069105910491039302910191009101223B2018F0E5FB87F049
:204B1C008000A7E0F8045DD55C4930680C680D3018F0D6FB002844D13068C11D0D3018F085
:204B3C00C3FB3EE0606D4178480704F13E0526D5287802281EBF03286878012830D16978B8
:204B5C00306804F1380218F0C3FC8146B9F1FF0F15D0306818FB09F948440D3018F0B0FB1E
:204B7C0068B930684844C11D0D3018F09DFB30684844C11D062204F1380017F029FB2878F7
:204B9C00022818BF03280BD130680D3018F098FB30B93068C11D062204F1300017F018FBBB
:204BBC002468002CBED13648DAF8042000784FF4805113F02FFD10B18E2018F071FB87F405
:204BDC00805047E0B80505D517F0D2FD2D4901200860FEE7780504D517F0FFFF87F48060BB
:204BFC0038E0780405D5812018F05AFB87F4804030E0B9042DD5244C206810B1002015F045
:204C1C00E7FD4FF0FF3020600020204C0EF066FE216851F8202F684690471D494A6B086B84
:204C3C00C96A24681B4B019200900293ADF810106B46194A19491A4803921A4A07922568BF
:204C5C00194AA8471949086004F0E8F887F4005000E0002009B0BDE8F08F00BFC2480020B7
:204C7C00480F0020680F0020880E0020D70F0020780E00204DE50110BC6700204C0F0020A7
:204C9C00C70F00207C052043380F0020200F0020CC42002081C4010091C4010040670020D7
:204CBC00005D00201EFB0080506400201C0F00202DE9F041FF2805462AD117F09BFD10F050
:204CDC001F0F22D0042014F04FFD08B1042016E0012014F049FD08B1012010E0022014F0F6
:204CFC0043FD08B102200AE0102014F03DFD08B1102004E0082014F037FD20B10820BDE85A
:204D1C00F04114F0D7BF15F063FD0020BDE8F08114F0D0FF5FEA000814BFD8F804400024E2
:204D3C00012D46F2A81740F6C4160BD0022D68D0042D00F0A780082D00F0F480102D00F0D2
:204D5C003281E2E7012014F00FFD00281EBFB648006800281CBF8788BF00102014F004FD19
:204D7C00F8B1102014F0A6FF05466E6846B9022014F0FAFC20B1022014F09CFF05466E68A6
:204D9C00012014F0F1FC002818BF002C07D0B068C11BA06816F098FB08B94046B6E72846FC
:204DBC00B4E7022014F0E0FCA0B1022014F082FF06460120756814F0D7FC002818BF002CF6
:204DDC0006D0A868C11BA06816F07EFB0028E4D030469BE7042014F0C7FC08B10420E5E706
:204DFC00082014F0C1FC30B1082014F063FF416800298BD1D1E7012014F0B6FC002885D005
:204E1C00CBE7022014F0B0FC58B1884801688848CA69017801EB81015318DF88774307F53E
:204E3C001667042014F0A0FC28B1042014F042FF06460220BEE7082014F096FC80B10820A9
:204E5C0014F038FF05466E6846B9012014F08CFC20B1012014F02EFF05466E68022090E751
:204E7C00012014F081FC28B1012014F023FF064602209FE7102014F077FC08B11020B4E735
:204E9C000220B9E7042014F06FFC50B16948016869484A69017802EB01139F89774307F5CA
:204EBC001667082014F060FC80B1082014F002FF05466E6846B9012014F056FC20B10120EA
:204EDC0014F0F8FE05466E6804205AE7012014F04BFC28B1012014F0EDFE0646042069E721
:204EFC00102014F041FC88B1102014F0E3FE05466E68002EE8D1022014F036FC0028E3D09C
:204F1C00022014F0D7FE05466E68DDE7022014F02BFC28B1022014F0CDFE0646042049E7DE
:204F3C00042069E717F004FE08B1D0F89470042014F01AFC28B1042014F0BCFE06460820E6
:204F5C0038E7012014F010FC60B1012014F0B2FE0646082014F008FC002818BF002C3FF425
:204F7C0037AF1AE7102014F0FFFB80B1102014F0A1FE05466E6846B9022014F0F5FB20B1F5
:204F9C00022014F097FE05466E680820F9E6022014F0EAFB28B1022014F08CFE064608200A
:204FBC0008E7082028E7032017F0C4FD08B1D0F89C70022014F0D8FB50B1022014F07AFE9F
:204FDC000646102014F0D0FB002818BF002CC6E7042014F0C9FB28B1042014F06BFE0646F0
:204FFC001020E7E6082014F0BFFB80B1082014F061FE05466E6846B9012014F0B5FB20B130
:20501C00012014F057FE05466E681020B9E6012014F0AAFB28B1012014F04CFE064610207C
:20503C00C8E61020E8E600BFD0670020500F0020D80F0020540F0020D90F00202DE9F84F24
:20505C00054605F14C0AE87D9AF80010DAF8047081424FF00008C0F0938105F1280407F168
:20507C00980907F17B06C34640F08C80A87F7075E97FB175DAF808205278930710D5EA7F6F
:20509C00D30604D5C01E707501F0EF01B175C7F87CB086F800800022B17D01F0FE016AE104
:2050BC00910608D4E08B00B1E07E3076E08B00B1206AC9F80000DAF808004178CA070DD594
:2050DC00E08B00281CBF206A002807D0C9F80000A17EE08B814238BF08463076E87FC10696
:2050FC000CD5F86B217800EB8100F863F86BA98CA63100EB8100F867022002E0C7F87CB0C7
:20511C0000203070DAF80800417811F0030F22D1007817F011FD5FEA00081CD098F8B4000C
:20513C00032809D1E87F810615D440F02000E877B07D40F020000DE068B9E87F81060AD570
:20515C0000F0DF00E877707DA0F112017175B07D00F0DF00B075E97F002201F0FC01284687
:20517C000AF0F4FBB8F1000F36D0E87F810633D598F8B40002282FD141462846BDE8F44F2B
:20519C0017F0E4BCE87F81060AD500F0DF00E877707DA0F112017175B07D00F0DF00B075B9
:2051BC00DAF808004178C80717D5B07D717D00F0F700891E01F03F0182075CBF891D40F031
:2051DC000200420644BF491E00F0BF00B0757175C9F800B086F81880D2E09AF80020E87DF5
:2051FC00121AD2B28907009240F18280012A07F144083FD1F86BA98C00EB8100F863A87F89
:20521C0000F03F00A8777075E97FB175DAF8082053785A0703D5801F707501F0FD01B1751A
:20523C000023707DE17E00F03F00421898F80000521CC0F3800192B200F0030018F0CCF825
:20525C0000F59B70A8841E21A88C90FBF1F18AB2B17D01F0FE0128460AF078FB86F800B0C3
:20527C00E08B00B1E07E3076E08B00B1206AC9F8000085E0F86BA98C022A00EB8100F8639B
:20529C0026D1E87FC10706D5707D811F7175B07D00F0FE00B0750023707DE17E00F03F00A0
:2052BC00421898F80000521CC0F3800192B200F0030018F091F800F59B70A8840022B17D02
:2052DC0001F0FE0128460AF041FB607FA8F81E00617F0098491C081AC0B201281CDDF96B8A
:2052FC00AA8CA63201EB8201F9670221317014E0F86BA98C00EB8100F863617F0098081A04
:20531C00E97FCA06C0B207D5F96BAA8CA63201EB8201F9670221317090B395F81F80A97F4F
:20533C00D9F80020E37E1A44C9F8002028F00108DAF808205278530748BF28F002089207BF
:20535C0048BF28F00808012807D1207F3076C7F87CB028F0100886F800B001F0C004404638
:20537C0018F03EF800F03F002043707586F81680002208F0FC012846BDE8F84F0AF0E6BA3D
:20539C00BDE8F18F2DE9FE4F0422FF2101A816F029FFC44EB078FF284FF0000900F07F81B3
:2053BC0016F0B2FE0546B07817F044F8064605F217100178012908BF417800F0F48005F17E
:2053DC00740A05F592789AF80E00022808BF8AF80E9095F89201022808BF85F892919AF83B
:2053FC001C00022808BF8AF81C90B8F80E1019B198F80C000AF0FEFD6889AB4C288105F5A2
:20541C008D77A27AE079217B80184118E07A0818617B41180091B888401CB88039880098FD
:20543C0041183980798851187980D8F80000C0B19E490B68A97903F10E0C49010E331CF871
:20545C0001C030F81CE00099714420F81C10A97949015B5C00EB4300B0F84A105218A0F864
:20547C004A2014F0E7FEE079002804BFE07A002805D1207B002804BF607B002843D0F07E17
:20549C00A6F80E90C009CB4610D0307F00F00701022907DA00F0F802401C00F007001043B7
:2054BC00307703E0A879002112F044FE2989E88985F810904118287FA981012804BF688C76
:2054DC00E883A979012207200FF013FA607870B1012129779AF80200002804BF9AF80E00F3
:2054FC00002804D19AF81C0008B9688CE88398F81400002860D0022804BFE07A002856D133
:20551C0088F8149058E0A979002207200FF0F1F9A5F81E90317F11F0070F02D1F07EC009A3
:20553C0003D0A879002112F005FEA07A38B1287F01284FF0010B24D1688CE88321E0F88842
:20555C00401CF8804FF0020B287CD0B1584908686E69AB7995F82E7000F11402760040F600
:20557C00C4105B0110FB076606F5F666D6500968A87901EB4010C17C01F0F00141F00401C7
:20559C00C174A8892989814206D088429ED2081A41F2AB02904299DA287C08B1052901D061
:2055BC00082100E03E21284615F0A6FA77E0607A10B1022188F81410E07BC1070ED520690C
:2055DC002968C86000F5B470C86039480168A87901F11402400142F8009015E03448AB7902
:2055FC00026802F114015B01C858C8F810002F48AB79016801F108025B01D0582968C86094
:20561C00A5F81E9085F81C902A4A50690078810702D5A07B802800D181208AF800002649D0
:20563C0091F8200018B12946012017F07FFA28460BF070FC02281DD19AF80700022805DB3C
:20565C0001AA1E49284610F0DBFE8146284617F023FE012823D05FEA09000DD04A4601A9F3
:20567C00284611F0DBFB38B928460BF053FC012802D114E0012812D00121284617F008FE88
:20569C00FEF7C0FE01280AD0284611F0F2FF00F017F8009881B22A46584609F021FBBDE846
:2056BC00F78F00BF780E0020980C0020980E00209C0E0020D4150200A46400204C470020C9
:2056DC002DE9FE4FDFF81883D8F804601EB9BDE8F74F17F0D9BD3078DFF80893C24FDFF844
:2056FC000CA3012818BF02280AD004281CBF0828102805D0402818BF802800F0A08068E157
:20571C0017F07EF80028FAD0012014F02DF820B1012014F0CFFA13F0D3FF082014F024F8D8
:20573C0020B1082014F0C6FA13F0CAFF3078FFF7BFFA05009AF8010014BF6C6800240028E2
:20575C004ED005F0A1FE16F0DFFC064630680090D0F804B0B0798AF80300BCB10099284688
:20577C0017F024FA022811D02978012902D0082963D02EE128B917F083FD00F5E8504C30BC
:20579C00A060012088F8020011211CE10098017880290CD10820964938700A78DBF814006C
:2057BC00012A1ABFD9F824100978012113E007203870B07916F03EFE0446207BC10748BF40
:2057DC00B0795DD48A480178DBF8140001291CBFD9F824104978C172B0798AF80200BCE0DA
:2057FC00002D11D02878AE420AD1012818BF082802D1002C03D1F1E0002014F0E9FFE3E071
:20581C00012802D0082816D0E3E0002CF3D017F037FD0146A06801F5C241A83115F054FEF6
:20583C0028B917F02DFD00F5E8504C30A060112038700121C0E0002CDDD00820C0E09AF8C3
:20585C000100002800F08B8005F01EFE16F05CFC054628680090D0F804B09AF8020016F018
:20587C0053FC0190A8798AF803003178402911D1A87916F0DFFD0446207BC1070AD5A879E2
:20589C0016F042FC052115F037F9207B00F0FE002073A3E016F0AEFF10F01F0F3AD00120A2
:2058BC0013F062FF20B1012014F004FA13F008FF082013F059FF20B1082014F0FBF913F0F3
:2058DC00FFFE98F80200FFF7F3F9064674680CB3009917F06BF902281CD03178012902D095
:2058FC0008290DD013E028B917F0CAFC00F5E8504C30A06011203870012188F8021004E0C3
:20591C00082088F802001221397030465DE0002014F05EFF0198A8421FD0009934480A78A8
:20593C00802A0BD10821397000780128DBF814001ABFD9F82410097801210AE007223A702D
:20595C0000780128DBF814000EBF0121D9F824104978C172A8798AF80200009835E016F063
:20597C0049FF10F01F0F39D0012013F0FDFE20B1012014F09FF913F0A3FE082013F0F4FE1E
:20599C0020B1082014F096F913F09AFE98F80200FFF78EF9054628786C68012802D00828CB
:2059BC000DD01BE0D4B117F06BFC00F5E8504C30A06001211120387088F8021004E06CB1C9
:2059DC0088F80200122139702846BDE8FE4F08F0B5BEBDE8FE4F002014F0FABEBDE8F78F89
:2059FC0078670020D4150200C80F0020780E0020CC0F00202DE9F84F05004ED0DFF8E4824C
:205A1C0098F80000092818BF0A2804D00B281CBF0C280D2801D1212062E1A878002117F0B7
:205A3C002FFD040008BF4220F6D0AF4FA978DFF8BCA2397098F8000010B9A8788AF8000033
:205A5C0004F14806F068417801F01201022902BF706900280C2012D0607AF0B1A07B012818
:205A7C0004D1B5F8030008B1812816DA6878402813DA20460CF026F9B06808B907202FE16D
:205A9C00B561287801281FD1A07B00281CBF0128042819D19648007808B9122020E1954996
:205ABC004A78824208BF0920F8D0F068417848070AD504F1220180204A7F04F1380107F0A7
:205ADC0043FB08B10B200BE1687808B9112007E12878DFF82492DFF824B2012840F0AF8080
:205AFC00002121737167217A012903D1B16968794871F4E0012000212072E1726173254676
:205B1C000BF0EEF86060DBF8000080477C4A0146106802E06A68426000680028FAD10846AA
:205B3C00D9F8001088476968764848610021387816F0F4FF3978012211200EF0DAFEF06864
:205B5C004178C80605D5284601F00AFC010024D0C6E0688C11F040FC85F82100F068007829
:205B7C0016F0EAFF04001CBF94F8B400002807D0E87F40F02000E877687D40F018006875DC
:205B9C00284617F015F80100E2D134B194F8B400012804BF284616F0D7FFF0684178C80778
:205BBC001CD505F14204A18800291CBF3068002814D022788A4211D20F2017F05DFB68B1DB
:205BDC00F06801788DF800100F20A288ADF8012021788DF80310694617F04AFB98F8000068
:205BFC00A0B94949087800281EBFF068417811F0030F03D04548006817F036FB112088F844
:205C1C00000001212972FFF75BFD68E0284614F01DF800281CBFB168002960D0AA7B012AC9
:205C3C0004D02A69808802EB800202E0486E2A69821895F8C01010460BF09EFD4FE0207A93
:205C5C0000284CD0DBF80010884705463878012116F064FF00202E4920720A683E78114604
:205C7C000B68187A002802BF586D0378B3421FD0C9689142F4D138789AF80010884224D11C
:205C9C0016F000FC616888421FD114F0D3FA40F2014017F045FB1F491F4A20480860012115
:205CBC0010780AF0A7F9D9F800102846884716E01B4E30780128DEDD084613F0E5FC16F065
:205CDC0049FC3078411E3170D5E7204617F0C8FAD9F8001028468847204613F069FA0020C6
:205CFC00BDE8F28FC80F0020D60F0020D50F0020D40F0020780E002038400020344000208D
:205D1C004C0F002009920000880E00206C0F0020D0670020480F0020C70F0020B5A70000E0
:205D3C00446800202DE9F043A24CA349A34E20700A22002008600D23A14840F22521027020
:205D5C004380818085B09F4A9F48106037789F480770FF2F7178417008BFFF29B27882700E
:205D7C00F378C370357905717679467114D1FF2A08BFFF2B10D1FF2D08BFFF2E0CD19449E5
:205D9C000A7802704B7843708A788270CB78C3700A790271497941718E4902788E4D8F4EA0
:205DBC008F4F0A7043784B7082788A70C378CB7002790A7140798B4A4871FF2028706870C3
:205DDC00A870E87028716871002087490880F06B8649407808708649F06B0078087013883E
:205DFC00844885490380F06BC06C08608349F06B90F83C0008708249F06B90F83D000870B5
:205E1C008049F06B90F86C000870F06B406901797D484A1E0270F06B7C49C0783870F06B5E
:205E3C008069086008B914F0D3FCF06B7849C069086008B914F0CCFCF06B016E75480C2272
:205E5C0016F0C6F917F008FAF06B7349006A086008B914F0BDFCF06BDFF8C081406AC8F814
:205E7C00000008B914F0B4FCF06B6D49806A086008B914F0ADFCF06B6A49806E002840D08C
:205E9C0001220A75F06B806E02681378C3F3400048B1F06B806E02681378C3F3C00000283B
:205EBC000CBF01200220487500208860C8600861F06B806E426890780870F06B806E4268FC
:205EDC00D0784870F06B806E426813788B70F06B806E42685078C870F06B806E42681079BE
:205EFC000871F06B806E426850794871F06B806E426890798871F06B806E4268D079C8712E
:205F1C0001E000220A7502F023F807280AD107F0ABF920784FF480410AF06CF8002014F013
:205F3C0057FC44E040480168884781460FF036F8D8F8000001688847684616F071F9D8F824
:205F5C00002004208DF80000694652F8043F002098473649086011F07DFCF068344A018861
:205F7C003878344B014311804846196888470C21314816F0F3FD284617F06AF917F064F94B
:205F9C002E4800214FF6FF72016082808171F06B90F864102A48006816F044FA0121FF208D
:205FBC0016F0BCFD20784FF400510AF023F805B0BDE8F083C70F0020380F0020D04F00502C
:205FDC00700E00203C0F0020B63F0050400E0020E8120050500E0020480E0020D4150200C0
:205FFC00C40F0020224900209E0F0020C60F0020D40F002032680020C46700204568002070
:20601C004668002043680020CB0F0020200F0020240F00206C670020280F00202C0F00208A
:20603C00300F0020E866002034400020C8670020A00F002038400020FC0D0020800E002056
:20605C00DC6700202DE9F84306460D46707801071DD4D6F80310B84821F07F412039814222
:20607C003FBFD6F8061021F07F412039814228BF112033D2B01DF11C88425CD3B07A0028F3
:20609C0018BF012803D0022818BF032853D1B07C002818BF012803D0022818BF03284AD153
:2060BC00307D012818BF022803D0832818BF032841D1707A10F0070070723CD030780121B2
:2060DC0017F0DEF904000AD1002017F0B9F8044617F0B2F8844214BF07200D2029E104F128
:2060FC00540100200E606072227A012A08BF0C20F4D0E075727A012383401A4208D0E27D96
:20611C00521CD3B2012B04BF00F125072776E275401C0328EEDB7078C20619D5317D0129AA
:20613C0009D1102811D012280CD0132804D0152804D01D2804D09DE0002007E0042102E076
:20615C00012003E00221A1735EE00320A0735BE0FF22A273307D02281EBF727802F0030070
:20617C00032808D01307E6D408B19006E3D4520707D516F10C007DD0F07A002818BF0128FF
:20619C0078D100206075E077707810F0030F25D1207D00F03F0020757078820605D4486804
:2061BC00002804BF8868002801D018216175707881060CD4307D832818BF032803D1012141
:2061DC001820E17702E0607D40F0010060757078410715D5E07F40F0020010E0217DC0074E
:2061FC004CBF4020802001F03F0108432075092118206075E1777078410701D50B20E07750
:20621C00207D00F0C000A07796F913007F2806BF4A4800780EF0A8FB04F12907387045B182
:20623C004749C86B416908683A7802EB8202805C2870B07ADFF80C81DFF80C91434D002814
:20625C0018BF012809D17875B07AC10758BFC8460622414604F1300032E028680D3017F08A
:20627C002FF8B8B1B07AC10754BF4946414617F023F808B912205CE0B07AC10754BF494672
:20629C004146062204F1300015F0A2FFB07A00F0010007E02868C11D062204F1300015F0A6
:2062BC0097FF032078752968B07A00F001000870B07AC107286858BFC84606224146401C46
:2062DC0015F086FF7078410730D5B07A022818BF032822D1F17A286806F10C0201F00101A7
:2062FC0017F0F6F88046B8F1FF0F16D01E20296810FB08F8414401F10D0016F0E1FF60B9CD
:20631C0028684044C11D0D3016F0CEFF0120B875062229684144C91D04E0F07AB87506224A
:20633C0006F10C0104F1380015F052FF012060720020BDE8F28300BFE1B70B00CA0F002032
:20635C00D4150200480E0020400E0020680F002000202DE9F04F0146ADF11C0D16F068FFCB
:20637C00A94C6060A948A06104F11C0016F0C0F9A06012F071F904F12805284615F010FD7C
:20639C004FF0010B4FF4E1302064A14884F828B029466063002012F0A3FCE06000B9FEE7B0
:2063BC0084F800B0042204F1100116F00CFB9D4FDFF86082DFF87092DFF870A2B81C06908B
:2063DC00606800214FF080424FF0FF3317F094F8A06817F089F80028F2D1A06815F0D7FB59
:2063FC00051CF5D02F78002F40F08D802778002F78D08A49894E08464F788078884907EBF8
:20641C000027A782A4F8FE70F2780698A2750CF00BF9A269DAF8000099F80010B7F57F47F7
:20643C0058D07F1E52D07F1E24D0BF1E1ED0FF1E0CD07F1E58D17B486421904700200146B8
:20645C0013F022FD4FF6087033A309E07548642190470020014613F017FD4FF6077038A354
:20647C00009099F80010DAF8000037E04FF604723DA332E098E8C000674B4FF0FF32324065
:20649C003B4002AF87E80C00634B08F1040292E8C0004FF0FF323B40324004AF4FF6027685
:2064BC0087E80C0039A30022009614F057FA0620002113F0E9FCE06802A9042216F088FA8C
:2064DC00E06804A9022216F083FA0DE04FF6017238A302E04FF47F4240A30092002214F003
:2064FC003DFA01E007F06EF82778E0682FB1A27D2AB1002121704A4903E084F800B0474966
:20651C00042216F060FA686808B113F0E9FA284613F0E6FA5CE7C0466F70636F6465203DF9
:20653C00203078257820284843495F54505F4741505F4144565F44495341424C452900C00E
:20655C006F70636F6465203D203078257820284843495F54505F4741505F4144565F454E61
:20657C0041424C452900C0466F70636F6465203D203078257820284843495F54505F53456A
:20659C00545F54585F504F57455229006F70636F6465203D203078257820284843495F5460
:2065BC00505F4745545F464346475F424C455F4D414329006F70636F6465203D203078256C
:2065DC007820284843495F54505F4745545F434346475F56455253494F4E29006F70636FF8
:2065FC006465203D203078257820284843495F54505F4745545F534F4654574152455F5617
:20661C00455253494F4E29003C2C0020DB9F0100B1B00100E8120050FFFF00004C2C002020
:20663C00D82C00203A2D0020304800201C4800202DE9FE4F01200190A74EA848A84F02780C
:20665C00112A02D0122A0DD040E1A64C2078002116F016FFA4490546087810B100220A70FC
:20667C00FCE0002D00F02581A048DFF88482DFF8849238600122217811200EF03AF9286D62
:20669C00696D009141F60802009B9B495C78E30640F1E680044641F20443B4F802C09C4550
:2066BC001FBFB4F81AE09E45B4F832C09C454FF4A05A1CD095F80EC0BCF1010F04BFB5F827
:2066DC00A6E09E4513D0B4F802E041F20A439E451FBFB4F81AB09B45B4F832E09E4506D0B6
:2066FC00BCF1010F04BFB5F8A6C09C4503D13380C7F800803DE0002340F2FE3B4FF0180C36
:20671C000CFB03FCA444BCF802E0A6F800E0BEF1010FF3D0BEF1000F5FD0AEF1020EBEF18E
:20673C00010F5AD9BEEB0B0E1AD04FF48063BEEB030363D04FF4406BB3EB0B034DD09B1ED6
:20675C00012B4AD91B1F48D040F2FA3BB3EB0B0379D05B1E6BD0D81E50D0001F4ED077E0C2
:20677C00B4F800C040F6010EF44536D15B1C022BC4DD386840452FD1A06C0168A06C01F12F
:20679C00080501680879032804BF94F86C0001281AD1D5F80E0000281CBF288B002813D050
:2067BC0095F8220010F0E00F0ED105F11E0016F03BFD012808D1688B298BAA8B401C89002B
:2067DC004843B0EB021F70DBA6F800A0C7F80090A06C01680020087167E0A87B01281CBF02
:2067FC000428A6F800A0C7F80090087D0028C0D08868401C002288600A82BAE7A87B0128B8
:20681C0006BF41F20243ACF80230ACF802A03088904215D1CA68088A4D8A521CCA60401C04
:20683C0082B2AA4238BF2A464A82088208E000994A78D1064CBF816C416F0868002101719A
:20685C00C7F8009095E7002013F0C2FF832003E0002013F0BDFF842016F00EFE012038E019
:20687C00C38E41F204455C1B1CD0A41F1AD03380408890420CD1CA68088A4C8A521CCA60C3
:20689C00401C82B2A24238BF22464A82088206E0087D20B18868401C002288600A8241F262
:2068BC000643C846C7F80080338001211348007809E016F03DF958B1C08811490F4A3080A5
:2068DC0039600121107809F095FB01E0002001900198BDE8FE8F00BF9A0F0020C80F0020F4
:2068FC00480F0020D50F002048680020756B0210911A0000B5A70000E8660020C70F0020D4
:20691C00C35201002DE9F04FDFF84C9204460D460020ADF1440D01461F460D9016460E914B
